{
  "_format": "hh-sol-artifact-1",
  "contractName": "HiDegen",
  "sourceName": "contracts/Degen.sol",
  "abi": [
    {
      "inputs": [],
      "stateMutability": "nonpayable",
      "type": "constructor"
    },
    {
      "anonymous": false,
      "inputs": [
        {
          "indexed": true,
          "internalType": "address",
          "name": "owner",
          "type": "address"
        },
        {
          "indexed": true,
          "internalType": "address",
          "name": "spender",
          "type": "address"
        },
        {
          "indexed": false,
          "internalType": "uint256",
          "name": "value",
          "type": "uint256"
        }
      ],
      "name": "Approval",
      "type": "event"
    },
    {
      "anonymous": false,
      "inputs": [
        {
          "indexed": true,
          "internalType": "address",
          "name": "previousOwner",
          "type": "address"
        },
        {
          "indexed": true,
          "internalType": "address",
          "name": "newOwner",
          "type": "address"
        }
      ],
      "name": "OwnershipTransferred",
      "type": "event"
    },
    {
      "anonymous": false,
      "inputs": [
        {
          "indexed": true,
          "internalType": "address",
          "name": "from",
          "type": "address"
        },
        {
          "indexed": true,
          "internalType": "address",
          "name": "to",
          "type": "address"
        },
        {
          "indexed": false,
          "internalType": "uint256",
          "name": "value",
          "type": "uint256"
        }
      ],
      "name": "Transfer",
      "type": "event"
    },
    {
      "inputs": [
        {
          "internalType": "address",
          "name": "owner",
          "type": "address"
        },
        {
          "internalType": "address",
          "name": "spender",
          "type": "address"
        }
      ],
      "name": "allowance",
      "outputs": [
        {
          "internalType": "uint256",
          "name": "",
          "type": "uint256"
        }
      ],
      "stateMutability": "view",
      "type": "function"
    },
    {
      "inputs": [
        {
          "internalType": "address",
          "name": "spender",
          "type": "address"
        },
        {
          "internalType": "uint256",
          "name": "amount",
          "type": "uint256"
        }
      ],
      "name": "approve",
      "outputs": [
        {
          "internalType": "bool",
          "name": "",
          "type": "bool"
        }
      ],
      "stateMutability": "nonpayable",
      "type": "function"
    },
    {
      "inputs": [],
      "name": "bal",
      "outputs": [
        {
          "internalType": "uint256",
          "name": "",
          "type": "uint256"
        }
      ],
      "stateMutability": "view",
      "type": "function"
    },
    {
      "inputs": [
        {
          "internalType": "address",
          "name": "account",
          "type": "address"
        }
      ],
      "name": "balanceOf",
      "outputs": [
        {
          "internalType": "uint256",
          "name": "",
          "type": "uint256"
        }
      ],
      "stateMutability": "view",
      "type": "function"
    },
    {
      "inputs": [
        {
          "internalType": "uint256",
          "name": "_value",
          "type": "uint256"
        }
      ],
      "name": "burn",
      "outputs": [],
      "stateMutability": "nonpayable",
      "type": "function"
    },
    {
      "inputs": [
        {
          "internalType": "uint8",
          "name": "_itemNumber",
          "type": "uint8"
        }
      ],
      "name": "buy",
      "outputs": [
        {
          "internalType": "bool",
          "name": "",
          "type": "bool"
        }
      ],
      "stateMutability": "payable",
      "type": "function"
    },
    {
      "inputs": [],
      "name": "decimals",
      "outputs": [
        {
          "internalType": "uint8",
          "name": "",
          "type": "uint8"
        }
      ],
      "stateMutability": "view",
      "type": "function"
    },
    {
      "inputs": [
        {
          "internalType": "address",
          "name": "spender",
          "type": "address"
        },
        {
          "internalType": "uint256",
          "name": "subtractedValue",
          "type": "uint256"
        }
      ],
      "name": "decreaseAllowance",
      "outputs": [
        {
          "internalType": "bool",
          "name": "",
          "type": "bool"
        }
      ],
      "stateMutability": "nonpayable",
      "type": "function"
    },
    {
      "inputs": [
        {
          "internalType": "address",
          "name": "spender",
          "type": "address"
        },
        {
          "internalType": "uint256",
          "name": "addedValue",
          "type": "uint256"
        }
      ],
      "name": "increaseAllowance",
      "outputs": [
        {
          "internalType": "bool",
          "name": "",
          "type": "bool"
        }
      ],
      "stateMutability": "nonpayable",
      "type": "function"
    },
    {
      "inputs": [
        {
          "internalType": "address",
          "name": "to",
          "type": "address"
        },
        {
          "internalType": "uint256",
          "name": "amount",
          "type": "uint256"
        }
      ],
      "name": "mint",
      "outputs": [],
      "stateMutability": "nonpayable",
      "type": "function"
    },
    {
      "inputs": [],
      "name": "name",
      "outputs": [
        {
          "internalType": "string",
          "name": "",
          "type": "string"
        }
      ],
      "stateMutability": "view",
      "type": "function"
    },
    {
      "inputs": [],
      "name": "owner",
      "outputs": [
        {
          "internalType": "address",
          "name": "",
          "type": "address"
        }
      ],
      "stateMutability": "view",
      "type": "function"
    },
    {
      "inputs": [],
      "name": "renounceOwnership",
      "outputs": [],
      "stateMutability": "nonpayable",
      "type": "function"
    },
    {
      "inputs": [],
      "name": "symbol",
      "outputs": [
        {
          "internalType": "string",
          "name": "",
          "type": "string"
        }
      ],
      "stateMutability": "view",
      "type": "function"
    },
    {
      "inputs": [],
      "name": "totalSupply",
      "outputs": [
        {
          "internalType": "uint256",
          "name": "",
          "type": "uint256"
        }
      ],
      "stateMutability": "view",
      "type": "function"
    },
    {
      "inputs": [
        {
          "internalType": "address",
          "name": "to",
          "type": "address"
        },
        {
          "internalType": "uint256",
          "name": "amount",
          "type": "uint256"
        }
      ],
      "name": "transfer",
      "outputs": [
        {
          "internalType": "bool",
          "name": "",
          "type": "bool"
        }
      ],
      "stateMutability": "nonpayable",
      "type": "function"
    },
    {
      "inputs": [
        {
          "internalType": "address",
          "name": "from",
          "type": "address"
        },
        {
          "internalType": "address",
          "name": "to",
          "type": "address"
        },
        {
          "internalType": "uint256",
          "name": "amount",
          "type": "uint256"
        }
      ],
      "name": "transferFrom",
      "outputs": [
        {
          "internalType": "bool",
          "name": "",
          "type": "bool"
        }
      ],
      "stateMutability": "nonpayable",
      "type": "function"
    },
    {
      "inputs": [
        {
          "internalType": "address",
          "name": "newOwner",
          "type": "address"
        }
      ],
      "name": "transferOwnership",
      "outputs": [],
      "stateMutability": "nonpayable",
      "type": "function"
    },
    {
      "inputs": [
        {
          "internalType": "address",
          "name": "_receiver",
          "type": "address"
        },
        {
          "internalType": "uint256",
          "name": "_value",
          "type": "uint256"
        }
      ],
      "name": "transferTokens",
      "outputs": [],
      "stateMutability": "nonpayable",
      "type": "function"
    },
    {
      "inputs": [],
      "name": "viewItems",
      "outputs": [
        {
          "internalType": "string",
          "name": "",
          "type": "string"
        }
      ],
      "stateMutability": "pure",
      "type": "function"
    }
  ],
  "bytecode": "0x60806040523480156200001157600080fd5b506040518060400160405280600581526020017f446567656e0000000000000000000000000000000000000000000000000000008152506040518060400160405280600381526020017f44474e000000000000000000000000000000000000000000000000000000000081525081600390816200008f91906200059c565b508060049081620000a191906200059c565b505050620000c4620000b8620000dd60201b60201c565b620000e560201b60201c565b620000d73360fa620001ab60201b60201c565b6200079e565b600033905090565b6000600560009054906101000a900473ffffffffffffffffffffffffffffffffffffffff16905081600560006101000a81548173ffffffffffffffffffffffffffffffffffffffff021916908373ffffffffffffffffffffffffffffffffffffffff1602179055508173ffffffffffffffffffffffffffffffffffffffff168173ffffffffffffffffffffffffffffffffffffffff167f8be0079c531659141344cd1fd0a4f28419497f9722a3daafe3b4186f6b6457e060405160405180910390a35050565b600073ffffffffffffffffffffffffffffffffffffffff168273ffffffffffffffffffffffffffffffffffffffff16036200021d576040517f08c379a00000000000000000000000000000000000000000000000000000000081526004016200021490620006e4565b60405180910390fd5b62000231600083836200031860201b60201c565b806002600082825462000245919062000735565b92505081905550806000808473ffffffffffffffffffffffffffffffffffffffff1673ffffffffffffffffffffffffffffffffffffffff168152602001908152602001600020600082825401925050819055508173ffffffffffffffffffffffffffffffffffffffff16600073ffffffffffffffffffffffffffffffffffffffff167fddf252ad1be2c89b69c2b068fc378daa952ba7f163c4a11628f55a4df523b3ef83604051620002f8919062000781565b60405180910390a362000314600083836200031d60201b60201c565b5050565b505050565b505050565b600081519050919050565b7f4e487b7100000000000000000000000000000000000000000000000000000000600052604160045260246000fd5b7f4e487b7100000000000000000000000000000000000000000000000000000000600052602260045260246000fd5b60006002820490506001821680620003a457607f821691505b602082108103620003ba57620003b96200035c565b5b50919050565b60008190508160005260206000209050919050565b60006020601f8301049050919050565b600082821b905092915050565b600060088302620004247fffffffffffffffffffffffffffffffffffffffffffffffffffffffffffffffff82620003e5565b620004308683620003e5565b95508019841693508086168417925050509392505050565b6000819050919050565b6000819050919050565b60006200047d62000477620004718462000448565b62000452565b62000448565b9050919050565b6000819050919050565b62000499836200045c565b620004b1620004a88262000484565b848454620003f2565b825550505050565b600090565b620004c8620004b9565b620004d58184846200048e565b505050565b5b81811015620004fd57620004f1600082620004be565b600181019050620004db565b5050565b601f8211156200054c576200051681620003c0565b6200052184620003d5565b8101602085101562000531578190505b620005496200054085620003d5565b830182620004da565b50505b505050565b600082821c905092915050565b6000620005716000198460080262000551565b1980831691505092915050565b60006200058c83836200055e565b9150826002028217905092915050565b620005a78262000322565b67ffffffffffffffff811115620005c357620005c26200032d565b5b620005cf82546200038b565b620005dc82828562000501565b600060209050601f831160018114620006145760008415620005ff578287015190505b6200060b85826200057e565b8655506200067b565b601f1984166200062486620003c0565b60005b828110156200064e5784890151825560018201915060208501945060208101905062000627565b868310156200066e57848901516200066a601f8916826200055e565b8355505b6001600288020188555050505b505050505050565b600082825260208201905092915050565b7f45524332303a206d696e7420746f20746865207a65726f206164647265737300600082015250565b6000620006cc601f8362000683565b9150620006d98262000694565b602082019050919050565b60006020820190508181036000830152620006ff81620006bd565b9050919050565b7f4e487b7100000000000000000000000000000000000000000000000000000000600052601160045260246000fd5b6000620007428262000448565b91506200074f8362000448565b92508282019050808211156200076a576200076962000706565b5b92915050565b6200077b8162000448565b82525050565b600060208201905062000798600083018462000770565b92915050565b61267580620007ae6000396000f3fe60806040526004361061011f5760003560e01c806342966c68116100a0578063a457c2d711610064578063a457c2d7146103de578063a9059cbb1461041b578063bec3fa1714610458578063dd62ed3e14610481578063f2fde38b146104be5761011f565b806342966c681461030b57806370a0823114610334578063715018a6146103715780638da5cb5b1461038857806395d89b41146103b35761011f565b8063313ce567116100e7578063313ce5671461022457806331e3c6bb1461024f578063395093511461027a5780633d79d1c8146102b757806340c10f19146102e25761011f565b806306fdde0314610124578063095ea7b31461014f57806314107f3c1461018c57806318160ddd146101bc57806323b872dd146101e7575b600080fd5b34801561013057600080fd5b506101396104e7565b604051610146919061195f565b60405180910390f35b34801561015b57600080fd5b5061017660048036038101906101719190611a1a565b610579565b6040516101839190611a75565b60405180910390f35b6101a660048036038101906101a19190611ac9565b61059c565b6040516101b39190611a75565b60405180910390f35b3480156101c857600080fd5b506101d1610a2e565b6040516101de9190611b05565b60405180910390f35b3480156101f357600080fd5b5061020e60048036038101906102099190611b20565b610a38565b60405161021b9190611a75565b60405180910390f35b34801561023057600080fd5b50610239610a67565b6040516102469190611b82565b60405180910390f35b34801561025b57600080fd5b50610264610a70565b604051610271919061195f565b60405180910390f35b34801561028657600080fd5b506102a1600480360381019061029c9190611a1a565b610a90565b6040516102ae9190611a75565b60405180910390f35b3480156102c357600080fd5b506102cc610ac7565b6040516102d99190611b05565b60405180910390f35b3480156102ee57600080fd5b5061030960048036038101906103049190611a1a565b610b48565b005b34801561031757600080fd5b50610332600480360381019061032d9190611b9d565b610b5e565b005b34801561034057600080fd5b5061035b60048036038101906103569190611bca565b610bb6565b6040516103689190611b05565b60405180910390f35b34801561037d57600080fd5b50610386610bfe565b005b34801561039457600080fd5b5061039d610c12565b6040516103aa9190611c06565b60405180910390f35b3480156103bf57600080fd5b506103c8610c3c565b6040516103d5919061195f565b60405180910390f35b3480156103ea57600080fd5b5061040560048036038101906104009190611a1a565b610cce565b6040516104129190611a75565b60405180910390f35b34801561042757600080fd5b50610442600480360381019061043d9190611a1a565b610d45565b60405161044f9190611a75565b60405180910390f35b34801561046457600080fd5b5061047f600480360381019061047a9190611a1a565b610d68565b005b34801561048d57600080fd5b506104a860048036038101906104a39190611c21565b610d98565b6040516104b59190611b05565b60405180910390f35b3480156104ca57600080fd5b506104e560048036038101906104e09190611bca565b610e1f565b005b6060600380546104f690611c90565b80601f016020809104026020016040519081016040528092919081815260200182805461052290611c90565b801561056f5780601f106105445761010080835404028352916020019161056f565b820191906000526020600020905b81548152906001019060200180831161055257829003601f168201915b5050505050905090565b600080610584610ea2565b9050610591818585610eaa565b600191505092915050565b600060018260ff16036106b05760963073ffffffffffffffffffffffffffffffffffffffff166370a08231336040518263ffffffff1660e01b81526004016105e49190611c06565b602060405180830381865afa158015610601573d6000803e3d6000fd5b505050506040513d601f19601f820116820180604052508101906106259190611cd6565b1015610666576040517f08c379a000000000000000000000000000000000000000000000000000000000815260040161065d90611d4f565b60405180910390fd5b610671336096610579565b506106853361067e610c12565b6096610a38565b506106a76040518060600160405280603f81526020016124d4603f9139611073565b60019050610a29565b60028260ff16036107c25760323073ffffffffffffffffffffffffffffffffffffffff166370a08231336040518263ffffffff1660e01b81526004016106f69190611c06565b602060405180830381865afa158015610713573d6000803e3d6000fd5b505050506040513d601f19601f820116820180604052508101906107379190611cd6565b1015610778576040517f08c379a000000000000000000000000000000000000000000000000000000000815260040161076f90611d4f565b60405180910390fd5b610783336032610579565b5061079733610790610c12565b6032610a38565b506107b960405180608001604052806043815260200161251360439139611073565b60019050610a29565b60038260ff16036108d457600a3073ffffffffffffffffffffffffffffffffffffffff166370a08231336040518263ffffffff1660e01b81526004016108089190611c06565b602060405180830381865afa158015610825573d6000803e3d6000fd5b505050506040513d601f19601f820116820180604052508101906108499190611cd6565b101561088a576040517f08c379a000000000000000000000000000000000000000000000000000000000815260040161088190611d4f565b60405180910390fd5b61089533600a610579565b506108a9336108a2610c12565b600a610a38565b506108cb6040518060600160405280603e8152602001612602603e9139611073565b60019050610a29565b60048260ff16036109e65760023073ffffffffffffffffffffffffffffffffffffffff166370a08231336040518263ffffffff1660e01b815260040161091a9190611c06565b602060405180830381865afa158015610937573d6000803e3d6000fd5b505050506040513d601f19601f8201168201806040525081019061095b9190611cd6565b101561099c576040517f08c379a000000000000000000000000000000000000000000000000000000000815260040161099390611d4f565b60405180910390fd5b6109a7336002610579565b506109bb336109b4610c12565b6002610a38565b506109dd6040518060600160405280603b81526020016125c7603b9139611073565b60019050610a29565b610a246040518060400160405280601b81526020017f506c656173652063686f6f736520612076616c6964206974656d210000000000815250611073565b600090505b919050565b6000600254905090565b600080610a43610ea2565b9050610a5085828561110c565b610a5b858585611198565b60019150509392505050565b60006012905090565b60606040518060a001604052806071815260200161255660719139905090565b600080610a9b610ea2565b9050610abc818585610aad8589610d98565b610ab79190611d9e565b610eaa565b600191505092915050565b60003073ffffffffffffffffffffffffffffffffffffffff166370a08231336040518263ffffffff1660e01b8152600401610b029190611c06565b602060405180830381865afa158015610b1f573d6000803e3d6000fd5b505050506040513d601f19601f82011682018060405250810190610b439190611cd6565b905090565b610b5061140e565b610b5a828261148c565b5050565b80610b6833610bb6565b1015610ba9576040517f08c379a0000000000000000000000000000000000000000000000000000000008152600401610ba090611e1e565b60405180910390fd5b610bb333826115e2565b50565b60008060008373ffffffffffffffffffffffffffffffffffffffff1673ffffffffffffffffffffffffffffffffffffffff168152602001908152602001600020549050919050565b610c0661140e565b610c1060006117af565b565b6000600560009054906101000a900473ffffffffffffffffffffffffffffffffffffffff16905090565b606060048054610c4b90611c90565b80601f0160208091040260200160405190810160405280929190818152602001828054610c7790611c90565b8015610cc45780601f10610c9957610100808354040283529160200191610cc4565b820191906000526020600020905b815481529060010190602001808311610ca757829003601f168201915b5050505050905090565b600080610cd9610ea2565b90506000610ce78286610d98565b905083811015610d2c576040517f08c379a0000000000000000000000000000000000000000000000000000000008152600401610d2390611eb0565b60405180910390fd5b610d398286868403610eaa565b60019250505092915050565b600080610d50610ea2565b9050610d5d818585611198565b600191505092915050565b80610d7233610bb6565b1015610d7d57600080fd5b610d873382610579565b50610d93338383610a38565b505050565b6000600160008473ffffffffffffffffffffffffffffffffffffffff1673ffffffffffffffffffffffffffffffffffffffff16815260200190815260200160002060008373ffffffffffffffffffffffffffffffffffffffff1673ffffffffffffffffffffffffffffffffffffffff16815260200190815260200160002054905092915050565b610e2761140e565b600073ffffffffffffffffffffffffffffffffffffffff168173ffffffffffffffffffffffffffffffffffffffff1603610e96576040517f08c379a0000000000000000000000000000000000000000000000000000000008152600401610e8d90611f42565b60405180910390fd5b610e9f816117af565b50565b600033905090565b600073ffffffffffffffffffffffffffffffffffffffff168373ffffffffffffffffffffffffffffffffffffffff1603610f19576040517f08c379a0000000000000000000000000000000000000000000000000000000008152600401610f1090611fd4565b60405180910390fd5b600073ffffffffffffffffffffffffffffffffffffffff168273ffffffffffffffffffffffffffffffffffffffff1603610f88576040517f08c379a0000000000000000000000000000000000000000000000000000000008152600401610f7f90612066565b60405180910390fd5b80600160008573ffffffffffffffffffffffffffffffffffffffff1673ffffffffffffffffffffffffffffffffffffffff16815260200190815260200160002060008473ffffffffffffffffffffffffffffffffffffffff1673ffffffffffffffffffffffffffffffffffffffff168152602001908152602001600020819055508173ffffffffffffffffffffffffffffffffffffffff168373ffffffffffffffffffffffffffffffffffffffff167f8c5be1e5ebec7d5bd14f71427d1e84f3dd0314c0f7b2291e5b200ac8c7c3b925836040516110669190611b05565b60405180910390a3505050565b61110981604051602401611087919061195f565b6040516020818303038152906040527f41304fac000000000000000000000000000000000000000000000000000000007bffffffffffffffffffffffffffffffffffffffffffffffffffffffff19166020820180517bffffffffffffffffffffffffffffffffffffffffffffffffffffffff8381831617835250505050611875565b50565b60006111188484610d98565b90507fffffffffffffffffffffffffffffffffffffffffffffffffffffffffffffffff81146111925781811015611184576040517f08c379a000000000000000000000000000000000000000000000000000000000815260040161117b906120d2565b60405180910390fd5b6111918484848403610eaa565b5b50505050565b600073ffffffffffffffffffffffffffffffffffffffff168373ffffffffffffffffffffffffffffffffffffffff1603611207576040517f08c379a00000000000000000000000000000000000000000000000000000000081526004016111fe90612164565b60405180910390fd5b600073ffffffffffffffffffffffffffffffffffffffff168273ffffffffffffffffffffffffffffffffffffffff1603611276576040517f08c379a000000000000000000000000000000000000000000000000000000000815260040161126d906121f6565b60405180910390fd5b61128183838361188f565b60008060008573ffffffffffffffffffffffffffffffffffffffff1673ffffffffffffffffffffffffffffffffffffffff16815260200190815260200160002054905081811015611307576040517f08c379a00000000000000000000000000000000000000000000000000000000081526004016112fe90612288565b60405180910390fd5b8181036000808673ffffffffffffffffffffffffffffffffffffffff1673ffffffffffffffffffffffffffffffffffffffff16815260200190815260200160002081905550816000808573ffffffffffffffffffffffffffffffffffffffff1673ffffffffffffffffffffffffffffffffffffffff168152602001908152602001600020600082825401925050819055508273ffffffffffffffffffffffffffffffffffffffff168473ffffffffffffffffffffffffffffffffffffffff167fddf252ad1be2c89b69c2b068fc378daa952ba7f163c4a11628f55a4df523b3ef846040516113f59190611b05565b60405180910390a3611408848484611894565b50505050565b611416610ea2565b73ffffffffffffffffffffffffffffffffffffffff16611434610c12565b73ffffffffffffffffffffffffffffffffffffffff161461148a576040517f08c379a0000000000000000000000000000000000000000000000000000000008152600401611481906122f4565b60405180910390fd5b565b600073ffffffffffffffffffffffffffffffffffffffff168273ffffffffffffffffffffffffffffffffffffffff16036114fb576040517f08c379a00000000000000000000000000000000000000000000000000000000081526004016114f290612360565b60405180910390fd5b6115076000838361188f565b80600260008282546115199190611d9e565b92505081905550806000808473ffffffffffffffffffffffffffffffffffffffff1673ffffffffffffffffffffffffffffffffffffffff168152602001908152602001600020600082825401925050819055508173ffffffffffffffffffffffffffffffffffffffff16600073ffffffffffffffffffffffffffffffffffffffff167fddf252ad1be2c89b69c2b068fc378daa952ba7f163c4a11628f55a4df523b3ef836040516115ca9190611b05565b60405180910390a36115de60008383611894565b5050565b600073ffffffffffffffffffffffffffffffffffffffff168273ffffffffffffffffffffffffffffffffffffffff1603611651576040517f08c379a0000000000000000000000000000000000000000000000000000000008152600401611648906123f2565b60405180910390fd5b61165d8260008361188f565b60008060008473ffffffffffffffffffffffffffffffffffffffff1673ffffffffffffffffffffffffffffffffffffffff168152602001908152602001600020549050818110156116e3576040517f08c379a00000000000000000000000000000000000000000000000000000000081526004016116da90612484565b60405180910390fd5b8181036000808573ffffffffffffffffffffffffffffffffffffffff1673ffffffffffffffffffffffffffffffffffffffff1681526020019081526020016000208190555081600260008282540392505081905550600073ffffffffffffffffffffffffffffffffffffffff168373ffffffffffffffffffffffffffffffffffffffff167fddf252ad1be2c89b69c2b068fc378daa952ba7f163c4a11628f55a4df523b3ef846040516117969190611b05565b60405180910390a36117aa83600084611894565b505050565b6000600560009054906101000a900473ffffffffffffffffffffffffffffffffffffffff16905081600560006101000a81548173ffffffffffffffffffffffffffffffffffffffff021916908373ffffffffffffffffffffffffffffffffffffffff1602179055508173ffffffffffffffffffffffffffffffffffffffff168173ffffffffffffffffffffffffffffffffffffffff167f8be0079c531659141344cd1fd0a4f28419497f9722a3daafe3b4186f6b6457e060405160405180910390a35050565b61188c816118846118996118ba565b63ffffffff16565b50565b505050565b505050565b60006a636f6e736f6c652e6c6f679050600080835160208501845afa505050565b6118c5819050919050565b6118cd6124a4565b565b600081519050919050565b600082825260208201905092915050565b60005b838110156119095780820151818401526020810190506118ee565b60008484015250505050565b6000601f19601f8301169050919050565b6000611931826118cf565b61193b81856118da565b935061194b8185602086016118eb565b61195481611915565b840191505092915050565b600060208201905081810360008301526119798184611926565b905092915050565b600080fd5b600073ffffffffffffffffffffffffffffffffffffffff82169050919050565b60006119b182611986565b9050919050565b6119c1816119a6565b81146119cc57600080fd5b50565b6000813590506119de816119b8565b92915050565b6000819050919050565b6119f7816119e4565b8114611a0257600080fd5b50565b600081359050611a14816119ee565b92915050565b60008060408385031215611a3157611a30611981565b5b6000611a3f858286016119cf565b9250506020611a5085828601611a05565b9150509250929050565b60008115159050919050565b611a6f81611a5a565b82525050565b6000602082019050611a8a6000830184611a66565b92915050565b600060ff82169050919050565b611aa681611a90565b8114611ab157600080fd5b50565b600081359050611ac381611a9d565b92915050565b600060208284031215611adf57611ade611981565b5b6000611aed84828501611ab4565b91505092915050565b611aff816119e4565b82525050565b6000602082019050611b1a6000830184611af6565b92915050565b600080600060608486031215611b3957611b38611981565b5b6000611b47868287016119cf565b9350506020611b58868287016119cf565b9250506040611b6986828701611a05565b9150509250925092565b611b7c81611a90565b82525050565b6000602082019050611b976000830184611b73565b92915050565b600060208284031215611bb357611bb2611981565b5b6000611bc184828501611a05565b91505092915050565b600060208284031215611be057611bdf611981565b5b6000611bee848285016119cf565b91505092915050565b611c00816119a6565b82525050565b6000602082019050611c1b6000830184611bf7565b92915050565b60008060408385031215611c3857611c37611981565b5b6000611c46858286016119cf565b9250506020611c57858286016119cf565b9150509250929050565b7f4e487b7100000000000000000000000000000000000000000000000000000000600052602260045260246000fd5b60006002820490506001821680611ca857607f821691505b602082108103611cbb57611cba611c61565b5b50919050565b600081519050611cd0816119ee565b92915050565b600060208284031215611cec57611ceb611981565b5b6000611cfa84828501611cc1565b91505092915050565b7f496e73756666696369656e7420546f6b656e7321000000000000000000000000600082015250565b6000611d396014836118da565b9150611d4482611d03565b602082019050919050565b60006020820190508181036000830152611d6881611d2c565b9050919050565b7f4e487b7100000000000000000000000000000000000000000000000000000000600052601160045260246000fd5b6000611da9826119e4565b9150611db4836119e4565b9250828201905080821115611dcc57611dcb611d6f565b5b92915050565b7f596f752072657175697265206d6f726520746f6b656e73000000000000000000600082015250565b6000611e086017836118da565b9150611e1382611dd2565b602082019050919050565b60006020820190508181036000830152611e3781611dfb565b9050919050565b7f45524332303a2064656372656173656420616c6c6f77616e63652062656c6f7760008201527f207a65726f000000000000000000000000000000000000000000000000000000602082015250565b6000611e9a6025836118da565b9150611ea582611e3e565b604082019050919050565b60006020820190508181036000830152611ec981611e8d565b9050919050565b7f4f776e61626c653a206e6577206f776e657220697320746865207a65726f206160008201527f6464726573730000000000000000000000000000000000000000000000000000602082015250565b6000611f2c6026836118da565b9150611f3782611ed0565b604082019050919050565b60006020820190508181036000830152611f5b81611f1f565b9050919050565b7f45524332303a20617070726f76652066726f6d20746865207a65726f2061646460008201527f7265737300000000000000000000000000000000000000000000000000000000602082015250565b6000611fbe6024836118da565b9150611fc982611f62565b604082019050919050565b60006020820190508181036000830152611fed81611fb1565b9050919050565b7f45524332303a20617070726f766520746f20746865207a65726f20616464726560008201527f7373000000000000000000000000000000000000000000000000000000000000602082015250565b60006120506022836118da565b915061205b82611ff4565b604082019050919050565b6000602082019050818103600083015261207f81612043565b9050919050565b7f45524332303a20696e73756666696369656e7420616c6c6f77616e6365000000600082015250565b60006120bc601d836118da565b91506120c782612086565b602082019050919050565b600060208201905081810360008301526120eb816120af565b9050919050565b7f45524332303a207472616e736665722066726f6d20746865207a65726f20616460008201527f6472657373000000000000000000000000000000000000000000000000000000602082015250565b600061214e6025836118da565b9150612159826120f2565b604082019050919050565b6000602082019050818103600083015261217d81612141565b9050919050565b7f45524332303a207472616e7366657220746f20746865207a65726f206164647260008201527f6573730000000000000000000000000000000000000000000000000000000000602082015250565b60006121e06023836118da565b91506121eb82612184565b604082019050919050565b6000602082019050818103600083015261220f816121d3565b9050919050565b7f45524332303a207472616e7366657220616d6f756e742065786365656473206260008201527f616c616e63650000000000000000000000000000000000000000000000000000602082015250565b60006122726026836118da565b915061227d82612216565b604082019050919050565b600060208201905081810360008301526122a181612265565b9050919050565b7f4f776e61626c653a2063616c6c6572206973206e6f7420746865206f776e6572600082015250565b60006122de6020836118da565b91506122e9826122a8565b602082019050919050565b6000602082019050818103600083015261230d816122d1565b9050919050565b7f45524332303a206d696e7420746f20746865207a65726f206164647265737300600082015250565b600061234a601f836118da565b915061235582612314565b602082019050919050565b600060208201905081810360008301526123798161233d565b9050919050565b7f45524332303a206275726e2066726f6d20746865207a65726f2061646472657360008201527f7300000000000000000000000000000000000000000000000000000000000000602082015250565b60006123dc6021836118da565b91506123e782612380565b604082019050919050565b6000602082019050818103600083015261240b816123cf565b9050919050565b7f45524332303a206275726e20616d6f756e7420657863656564732062616c616e60008201527f6365000000000000000000000000000000000000000000000000000000000000602082015250565b600061246e6022836118da565b915061247982612412565b604082019050919050565b6000602082019050818103600083015261249d81612461565b9050919050565b7f4e487b7100000000000000000000000000000000000000000000000000000000600052605160045260246000fdfe436f6e67726174756c6174696f6e732120596f752068617665207375636365737366756c6c7920707572636861736564204d616a6f72612773204d61736b21436f6e67726174756c6174696f6e732120596f752068617665207375636365737366756c6c792070757263686173656420736f6d6520447261676f6e20426f6e657321596f752063616e206275792074686520666f6c6c6f77696e67204974656d73212031204d616a6f72612773204d61736b203a2031353044474e203220447261676f6e20426f6e657320353044474e2033204d6167696320536c656420313044474e2034204e61766174617220322044474e436f6e67726174756c6174696f6e732e20596f752068617665207375636365737366756c6c79207075726368617365642061204e61766174617221436f6e67726174756c6174696f6e732e20596f752068617665207375636365737366756c6c79207075726368617365642061204d6167696320536c656421a2646970667358221220a7edebf26f6df186e82af135af52caae683622980eadc2945e22441a05dd240464736f6c63430008120033",
  "linkReferences": {},
  "deployedLinkReferences": {}
}